:100000000C946E000C94F5020C94CE020C949600A5
:100010000C9496000C9496000C9496000C94960008
:100020000C9496000C9496000C9496000C94740317
:100030000C9496000C9496000C9496000C949600E8
:100040000C9403070C9496000C9442030C941C032C
:100050000C9496000C9496000C9496000C949600C8
:100060000C9496000C949600C109C609CB09D009DE
:10007000D509F509DA09DD09E409EB09EE09F50905
:1000800000000000240027002A00000000002500D6
:1000900028002B0000000000230026002900040493
:1000A0000404040404040202020202020303030320
:1000B00003030102040810204080010204081020FC
:1000C00001020408102000000008000201000003E3
:1000D000040700000000000000004C0B11241FBEAC
:1000E000CFEFD8E0DEBFCDBF11E0A0E0B1E0E6EA9F
:1000F000F8E102C005900D92AE32B107D9F722E0C7
:10010000AEE2B1E001C01D92AF32B207E1F710E0FC
:10011000CEE6D0E004C02197FE010E94460CCD3609
:10012000D107C9F70E944D070C94510C0C940000A4
:100130000895CF92DF92EF92FF920F931F93CF9388
:10014000DF936C017A018B01C0E0D0E0CE15DF05B2
:1001500081F0D8016D918D01D601ED91FC91019056
:10016000F081E02DC6010995892B11F02196EECF83
:100170007E01C701DF91CF911F910F91FF90EF900A
:10018000DF90CF900895FC01538D448D252F30E0F2
:10019000842F90E0821B930B541710F0CF96089594
:1001A00001970895FC01918D828D981761F0828DE1
:1001B000DF01A80FB11D5D968C91928D9F5F9F739B
:1001C000928F90E008958FEF9FEF0895FC01918D3D
:1001D000828D981731F0828DE80FF11D858D90E0AA
:1001E00008958FEF9FEF0895FC01918D228D892F47
:1001F00090E0805C9F4F821B91098F73992708952F
:1002000089E491E00E94F40021E0892B09F420E0C8
:10021000822F0895FC01848DDF01A80FB11DA35A20
:10022000BF4F2C91848D90E001968F739927848F16
:10023000A689B7892C93A089B1898C918370806439
:100240008C93938D848D981306C00288F389E02DDA
:1002500080818F7D80830895EF92FF920F931F938B
:10026000CF93DF93EC0181E0888F9B8D8C8D981369
:1002700005C0E889F989808185FD26C0F62E0B8DA1
:1002800010E00F5F1F4F0F731127E02E8C8DE812C7
:100290000CC00FB607FCFACFE889F989808185FF89
:1002A000F5CFCE010E940A01F1CF8B8DFE01E80F40
:1002B000F11DE35AFF4FF0829FB7F8940B8FEA8944
:1002C000FB89808180620AC09FB7F894EE89FF891C
:1002D0006083E889F98980818370806480839FBF0F
:1002E00081E090E0DF91CF911F910F91FF90EF900F
:1002F0000895CF93DF93EC01888D8823C9F0EA89B4
:10030000FB89808185FD05C0A889B9898C9186FD0E
:100310000FC00FB607FCF5CF808185FFF2CFA8890B
:10032000B9898C9185FFEDCFCE010E940A01E7CFFC
:10033000DF91CF91089580E090E0892B29F00E9411
:10034000000181110C9400000895089580E090E070
:10035000089520913D0130913E012130310501F198
:1003600048F02230310509F43FC02330310509F44B
:1003700063C00895892B09F484C081E090E09093D4
:100380003E0180933D01109244011092430110926E
:10039000300110922F011092320110923101089514
:1003A000892B19F082E090E023C080914301909165
:1003B0004401680F791F683171052CF47093440172
:1003C0006093430104C01092440110924301809154
:1003D00043019091440197FF54C087E190E09093CE
:1003E0004401809343010895892B39F083E090E024
:1003F00090933E0180933D01089580912F0190914B
:100400003001680F791F6C3371052CF47093300143
:1004100060932F0104C01092300110922F0180913F
:100420002F019091300197FF2CC08BE390E09093C7
:10043000300180932F010895892B29F010923E01FD
:1004400010923D0108958091310190913201680F21
:10045000791F6C3371052CF4709332016093310174
:1004600004C01092320110923101809131019091BB
:10047000320197FF06C08BE390E0909332018093A6
:1004800031010895CF93DF9382E00E948605EC014D
:1004900083E00E948605C817D90731F480913B019B
:1004A00090913C01019605C080913B0190913C01E7
:1004B000019790933C0180933B01DF91CF91089588
:1004C000CF93DF9382E00E948605EC0183E00E94D7
:1004D0008605C817D90731F480913B0190913C0102
:1004E000019705C080913B0190913C01019690934A
:1004F0003C0180933B01DF91CF910895CF93DF932F
:10050000EC0160E08E810E94AF0561E08E810E9467
:10051000AF0560E08E810E94AF058BE891E0019706
:10052000F1F7DF91CF9108958091430190914401BB
:100530000A9724F485E291E00E94F204809143013D
:10054000909144010E9404058CE291E00E94F20423
:1005500080912F01909130010A9724F485E291E077
:100560000E94F20480912F01909130010E940405B5
:100570008CE291E00E94F20480913101909132016D
:100580000A9724F485E291E00E94F20480913101FF
:10059000909132010C9404050E944C0C1F920F9212
:1005A0000FB60F9211242F933F934F935F936F9346
:1005B0007F938F939F93AF93BF93EF93FF93E091BC
:1005C0000201F09103010995FF91EF91BF91AF9165
:1005D0009F918F917F916F915F914F913F912F915B
:1005E0000F900FBE0F901F9018951F920F920FB68D
:1005F0000F9211242F933F934F935F936F937F93A9
:100600008F939F93AF93BF93EF93FF93E09100017C
:10061000F09101010995FF91EF91BF91AF919F91E9
:100620008F917F916F915F914F913F912F910F909B
:100630000FBE0F901F9018951F920F920FB60F923A
:1006400011242F933F934F935F936F937F938F93D7
:100650009F93AF93BF93EF93FF9389E491E00E9440
:100660000A01FF91EF91BF91AF919F918F917F917F
:100670006F915F914F913F912F910F900FBE0F900F
:100680001F9018951F920F920FB60F9211242F935F
:100690008F939F93EF93FF93E0915901F0915A014B
:1006A0008081E0915F01F091600182FD12C0908134
:1006B000809162018F5F8F7320916301821751F0E7
:1006C000E0916201F0E0E75BFE4F958F809362015D
:1006D00001C08081FF91EF919F918F912F910F9099
:1006E0000FBE0F901F9018951F920F920FB60F928A
:1006F00011242F933F934F935F936F937F938F9327
:100700009F93AF93BF93EF93FF9380912E0187FF49
:1007100005C010928500109284001BC020912E010C
:10072000022E000C330B80910A0290E02817390743
:1007300084F480912E01082E000C990BFC01EE0F21
:10074000FF1F8E0F9F1FFC01EA51FE4F808186FD27
:1007500015C080912E018F5F80932E0120912E0174
:10076000022E000C330B80910A0290E02817390703
:10077000C4F480912E018C3064F113C080912E015D
:10078000082E000C990BFC01EE0FFF1F8E0F9F1F10
:10079000FC01EA51FE4F808160E08F730E94AF053B
:1007A000D8CF8091840090918500049680349C4934
:1007B00018F480E49CE905C0809184009091850044
:1007C000049690938900809388008FEF80932E0188
:1007D0003BC0209184003091850080912E01082E2D
:1007E000000C990BFC01EE0FFF1F8E0F9F1FFC01E9
:1007F000EA51FE4F81819281820F931F909389006D
:100800008093880080912E01082E000C990BFC012A
:10081000EE0FFF1F8E0F9F1FFC01EA51FE4F8081DC
:1008200086FF12C080912E01082E000C990BFC014E
:10083000EE0FFF1F8E0F9F1FFC01EA51FE4F8081BC
:1008400061E08F730E94AF05FF91EF91BF91AF916F
:100850009F918F917F916F915F914F913F912F91D8
:100860000F900FBE0F901F901895CF92DF92EF92CE
:10087000FF920F931F93CF93DF936C017C0187E06E
:10088000E80EF11CC0E0D0E0062F10E0B8010C2EFD
:1008900002C0759567950A94E2F76170F70181913E
:1008A0007F010E94AF052196C430D10579F7C601BA
:1008B000DF91CF911F910F91FF90EF90DF90CF903C
:1008C0000C947E02CF92DF92EF92FF920F931F93D0
:1008D000CF93DF93EC01F62E642F8C810E94AF053D
:1008E0008D818F3F19F060E00E94AF058F850F2D3D
:1008F00010E084FF25C06E0187E0C80ED11CE12CFA
:10090000F12CB8010E2C02C0759567950A94E2F798
:100910006170F60181916F010E94AF05FFEFEF1A40
:10092000FF0A88E0E816F10461F7CE01DF91CF916C
:100930001F910F91FF90EF90DF90CF900C947E026B
:10094000B80184E0759567958A95E1F7CE010E941C
:1009500035046F2DCE01DF91CF911F910F91FF9044
:10096000EF90DF90CF900C94350441E00E94620438
:1009700081E090E00895833081F028F4813099F08F
:100980008230A1F008958730A9F08830B9F0843022
:10099000D1F4809180008F7D03C0809180008F779B
:1009A00080938000089584B58F7702C084B58F7DD1
:1009B00084BD08958091B0008F7703C08091B0000E
:1009C0008F7D8093B000089540E0682F8EE092E024
:1009D0000C94620481E00E94E4048BE39FE10197A0
:1009E000F1F70895009769F0FC0101900020E9F704
:1009F0003197AF01481B590BBC018EE092E00C947B
:100A0000990080E090E008958F929F92AF92BF92FC
:100A1000CF92DF92EF92FF92CF93DF93CDB7DEB705
:100A2000A1970FB6F894DEBF0FBECDBF6C01990F32
:100A3000EE08FF08F7FE2AC041E06DE28EE092E08A
:100A40000E94620422273327A9012C193D094E096F
:100A50005F0919A2CE0181967C019AE0892E912C22
:100A6000A12CB12CCA01B901A50194010E94090C65
:100A7000605DF70162937F01211531054105510544
:100A800089F7CF010E94F20401961DC0A7019601CB
:100A900019A2CE0181967C018AE0882E912CA12C8E
:100AA000B12CCA01B901A50194010E94090C605D35
:100AB000F70162937F01211531054105510589F741
:100AC000CF010E94F204A1960FB6F894DEBF0FBECC
:100AD000CDBFDF91CF91FF90EF90DF90CF90BF908F
:100AE000AF909F908F900895643008F063E09091EC
:100AF0002102691710F06FEF690FE62FF0E0E25F57
:100B0000FD4F9489890F80680C94E404CF93DF93A0
:100B1000282F30E0F901EA53FF4F8491F901EE5498
:100B2000FF4FD491F901E256FF4FC491CC2391F0CD
:100B300081110E94BB04EC2FF0E0EE0FFF1FEC567A
:100B4000FF4FA591B491EC91ED2381E090E021F469
:100B500080E002C080E090E0DF91CF9108951F9384
:100B6000CF93DF93282F30E0F901EA53FF4F8491B0
:100B7000F901EE54FF4FD491F901E256FF4FC491B1
:100B8000CC23C1F0162F81110E94BB04EC2FF0E0A2
:100B9000EE0FFF1FE657FF4FA591B4919FB7F89452
:100BA000111104C08C91D095D82302C0EC91DE2B9A
:100BB000DC939FBFDF91CF911F910895CF93DF9377
:100BC00090E0FC01EE54FF4F2491FC01E256FF4FF0
:100BD0008491882361F190E0880F991FFC01E0580F
:100BE000FF4FC591D491FC01E657FF4FA591B491F9
:100BF000611109C09FB7F89488812095822388836A
:100C0000EC912E230BC0623061F49FB7F894888179
:100C1000322F309583238883EC912E2B2C939FBF0A
:100C200006C08FB7F894E8812E2B28838FBFDF9101
:100C3000CF910895CF93DF93823028F090911D02D9
:100C4000986090931D02809321021092220280E40A
:100C50008093230280E18093240280E58093250223
:100C600061E0809112020E94DE05809113028F3FA5
:100C700019F061E00E94DE0561E0809114020E949B
:100C8000DE05CEE0D2E09E012E50324080911D0262
:100C900084FD03C084E090E002C088E090E02196EB
:100CA000281739072CF461E08E810E94DE05EBCF16
:100CB0008BE39DE00197F1F760E0809112020E94C2
:100CC000AF0560E0809114020E94AF05809113028D
:100CD0008F3F19F060E00E94AF0580911D0284FDF6
:100CE00020C063E08EE092E00E943504CBE4D6E4BD
:100CF000CE010197F1F763E08EE092E00E943504A7
:100D00002197F1F763E08EE092E00E94350483E5DD
:100D100092E00197F1F762E08EE092E00E943504E4
:100D200015C080620E94E4048BE496E40197F1F719
:100D300080911D0280620E94E40483E592E00197A5
:100D4000F1F780911D0280620E94E40480911D02EF
:100D500080620E94E40484E080931E028CE00E9482
:100D6000E4040E94EA0482E080931F0286E0DF919F
:100D7000CF910C94E4048E3008F08E50877080641C
:100D800080937C0080917A00806480937A008091C7
:100D90007A0086FDFCCF809178002091790090E068
:100DA000922B08953FB7F89480912B0290912C02DA
:100DB000A0912D02B0912E0226B5A89B05C02F3F11
:100DC00019F00196A11DB11D3FBFBA2FA92F982F71
:100DD0008827820F911DA11DB11DBC01CD0142E0EC
:100DE000660F771F881F991F4A95D1F708952FB76F
:100DF000F8946091270270912802809129029091C5
:100E00002A022FBF08951F920F920FB60F9211243E
:100E10002F933F938F939F93AF93BF93809127021C
:100E200090912802A0912902B0912A0230912602C5
:100E300023E0230F2D3720F40196A11DB11D05C01D
:100E400026E8230F0296A11DB11D20932602809350
:100E5000270290932802A0932902B0932A0280913E
:100E60002B0290912C02A0912D02B0912E0201969E
:100E7000A11DB11D80932B0290932C02A0932D02F3
:100E8000B0932E02BF91AF919F918F913F912F917F
:100E90000F900FBE0F901F901895CF93DF9300D047
:100EA00000D0CDB7DEB7789484B5826084BD84B5B8
:100EB000816084BD85B5826085BD85B5816085BD55
:100EC00080916E00816080936E001092810080910D
:100ED0008100826080938100809181008160809395
:100EE0008100809180008160809380008091B100BA
:100EF00084608093B1008091B00081608093B000E5
:100F000080917A00846080937A0080917A00826078
:100F100080937A0080917A00816080937A0080913A
:100F20007A00806880937A001092C10060E082E0CD
:100F30000E94DE0560E083E00E94DE0582E492E02C
:100F40009093010180930001809169008C7F816002
:100F500080936900E89A80E692E090930301809381
:100F6000020180916900837F846080936900E99A1F
:100F700060E084E00E94DE05109238011092370193
:100F800061E08DE00E94DE0580910B028C3008F05C
:100F900051C061E08AE00E94DE0580910B02E82FDB
:100FA000F0E09F01220F331FE20FF31FEA51FE4FC3
:100FB0009081907C9A60908310920C0210920D02A6
:100FC0006CE00E943A0C0CE0809FB001112440E0DC
:100FD00050E09B01240F351FF901EE0FFF1F2E0F6C
:100FE0003F1FF901EA51FE4F908196FD16C04F5FF9
:100FF0005F4F4C30510569F781110FC0109280008E
:1010000082E0809381001092850010928400B19A52
:1010100080916F00826080936F00E0910B02F0E09E
:10102000CF01880F991FE80FF91FEA51FE4F808109
:101030008064808360E080E00E94DE0560E081E003
:101040000E94DE0561E08AE00E94DE0560910401F5
:1010500070910501603212E071070CF040C077FD1D
:1010600006C0653B71052CF064EB70E002C060E0E7
:1010700070E080910C02A8E8B0E06D01C81AD108B8
:1010800087FDD394D601AA0FBB1FAA0FBB1F6D010A
:10109000BB0FEE08FF0880910D0208E512E0081B67
:1010A000110987FD1395000F111F000F111F012E4D
:1010B000000C220B330BA90198012C193D094E0994
:1010C0005F09DB010E94010C24EB30E040E050E0BE
:1010D0000E94D70BC20ED31EE41EF51EB601A091CE
:1010E0000B02AC3090F520910C0288E890E0821B56
:1010F000910927FD9395880F991F880F991F6817ED
:1011000079078CF080910D0228E532E0281B310927
:1011100087FD3395220F331F220F331FCB01261774
:1011200037070CF4C9010297880F991F4FB7F8943D
:101130002A2F30E0F901EE0FFF1F2E0F3F1FF9019C
:10114000EA51FE4F928381834FBF0E94D2064B012A
:101150005C01E0EDCE2EE7E0DE2EE12CF12C0E94CA
:10116000D206DC01CB0188199909AA09BB09883E7E
:101170009340A105B10598F321E0C21AD108E10816
:10118000F10838EE830E33E0931EA11CB11CC1148C
:10119000D104E104F10419F782E00E941A060E94CA
:1011A000EA040E94F706609345017093460180931C
:1011B00047019093480180913B0190913C019093AD
:1011C0003A01809339018BE090E090934401809341
:1011D00043018BE390E09093300180932F01909333
:1011E000320180933101E0915901F0915A0182E07E
:1011F0008083E0915501F09156011082E0915701F2
:10120000F09158018FEC808310926101E0915D01B3
:10121000F0915E0186E08083E0915B01F0915C01DA
:10122000808180618083E0915B01F0915C0180812D
:1012300088608083E0915B01F0915C01808180682F
:101240008083E0915B01F0915C0180818F7D8083E0
:101250009AE5E92EF12C2BE4222E312C3CE3432E8F
:10126000512C4DE2642E712C5EE1C52ED12C6FE025
:10127000A62EB12C72E0872E912C0E94F7060091C9
:101280004501109146012091470130914801DC0150
:10129000CB01801B910BA20BB30B843F9140A105A6
:1012A000B10508F4C7C080E00E94BB068C0181E054
:1012B0000E94BB069A838983809106018823C1F02E
:1012C0000E94EA040E94940261E080E00E9474059A
:1012D00087E291E00E94F20480910401909105015F
:1012E0000E94040541E06FED8EE092E00E946204EE
:1012F000043F81E018077CF5C80129813A81821BEF
:10130000930B97FF03C09195819591094A970CF42F
:101310007DC049815A81440F551F5A834983401724
:1013200051074CF48091040190910501823B910595
:1013300014F4039667C089819A81081719070CF085
:1013400065C08091040190910501833091050CF4F2
:101350005DC0039757C0E0914301F0914401CF0174
:1013600006970D9708F046C03797EC30F10520F44A
:10137000EC5CFF4F0C94460C109205011092040196
:1013800045C0B0920501A092040140C0D092050171
:10139000C09204013BC0709205016092040136C006
:1013A000509205014092040131C030920501209213
:1013B00004012CC009E610E013C028E730E03093A8
:1013C00005012093040122C047E850E05093050135
:1013D000409304011BC086E990E014C005EA10E0C8
:1013E000109305010093040111C0F0920501E092F1
:1013F00004010CC080910401909105018A3091058F
:101400002CF00A9790930501809304018091450187
:1014100090914601A0914701B09148018C509E4F98
:10142000AF4FBF4F8093450190934601A093470172
:10143000B09348010E94F70620913F01309140018E
:10144000409141015091420129833A834B835C834F
:10145000AB01BC0109811A812B813C81401B510BDE
:10146000620B730B483E53406105710508F47AC066
:1014700020913D0130913E01232BB1F520913101A6
:10148000309132012B3331053CF42F5F3F4F3093C5
:1014900032012093310128C01092320110923101A3
:1014A00020912F01309130012B3331053CF42F5F17
:1014B0003F4F3093300120932F0116C0109230011E
:1014C00010922F01209143013091440127313105C1
:1014D0003CF42F5F3F4F309344012093430104C0FD
:1014E000109244011092430189819A81AB81BC81A1
:1014F00088519C4FAF4FBF4F80933F019093400165
:10150000A0934101B09342010E94EA040E94940218
:1015100080913D0190913E018130910549F090F01C
:101520008230910551F00397A1F460E086E007C096
:101530001092060160E080E002C060E083E00E945B
:10154000740507C061E080E00E94740581E080932B
:10155000060180911E02982F916090931E0289606F
:101560000E94E40484E00E948605209137013091B6
:10157000380121303105D9F028F02230310509F445
:1015800044C049C0892B09F046C00E94F706609309
:10159000330170933401809335019093360181E0DB
:1015A00090E0909338018093370161E007C0019784
:1015B00049F4109238011092370160E08DE00E94EA
:1015C000AF0529C00E94F706009133011091340144
:1015D0002091350130913601DC01CB01801B910B4C
:1015E000A20BB30B0597A105B105A8F090923801A5
:1015F0008092370160E08DE00E94AF0560E070E00E
:1016000081E090E00E94A90106C0019721F41092A8
:1016100038011092370180913D0190913E01892B54
:10162000C1F180913B0190913C01209139013091B1
:101630003A01821B930B049784F061E070E080E034
:1016400090E00E94A9010E94EA040E949402809105
:10165000390190913A01049618C080913B01909114
:101660003C01821B930B8D3F9F4F9CF46FEF7FEFEC
:1016700080E090E00E94A9010E94EA040E94940286
:101680008091390190913A01049790933A018093A7
:1016900039010E949B01F1CDCF9310924C01109221
:1016A0004B0188EE93E0A0E0B0E080934D01909371
:1016B0004E01A0934F01B09350018BE091E09093C5
:1016C0004A018093490185EC90E090935601809304
:1016D000550184EC90E0909358018093570180EC81
:1016E00090E090935A018093590181EC90E090939F
:1016F0005C0180935B0182EC90E090935E018093AB
:101700005D0186EC90E09093600180935F01109200
:1017100062011092630110926401109265011092AF
:101720001102109210028DE191E090930F028093CC
:101730000E0283E180931202CFEFC093130282E185
:101740008093140285E08093150286E08093160250
:1017500087E08093170288E08093180210921902A4
:1017600010921A0210921B0210921C0210921D027B
:1017700081E00E941A0680910A028C30A0F491E068
:10178000980F90930A0280930B0290E0FC01EE0FF9
:10179000FF1F8E0F9F1FFC01EA51FE4F88EB9BE05D
:1017A0009283818302C0C0930B02CF910895052ECE
:1017B00097FB1EF400940E94EE0B57FD07D00E9489
:1017C000090C07FC03D04EF40C94EE0B5095409599
:1017D000309521953F4F4F4F5F4F089590958095DD
:1017E000709561957F4F8F4F9F4F08950E942B0CEE
:1017F000A59F900DB49F900DA49F800D911D112465
:101800000895B7FF0C94F60B0E94F60B821B930B06
:101810000895A1E21A2EAA1BBB1BFD010DC0AA1F31
:10182000BB1FEE1FFF1FA217B307E407F50720F049
:10183000A21BB30BE40BF50B661F771F881F991FC4
:101840001A9469F760957095809590959B01AC010D
:10185000BD01CF010895A29FB001B39FC001A39F16
:10186000700D811D1124911DB29F700D811D1124D9
:10187000911D0895991B79E004C0991F961708F0EF
:10188000961B881F7A95C9F780950895EE0FFF1F64
:101890000590F491E02D099481E090E0F8940C9487
:0618A000510CF894FFCF8B
:1018A600980098005A0001000000002C019900C31E
:1018B600007901F400D200E60000000000B50499AA
:0E18C60000A601A5013000416E676C653A0076
:00000001FF
